:100000000E308A00002E0000FF00030E8301A100C5
:100010000A08A0008A010408A2007708A300780853
:10002000A4007908A5007A08A60003170D08031399
:10003000A70003170F080313A80003170C080313E6
:10004000A90003170E080313AA00831383120B1EC3
:100050002B288B1852288C308400001C31280C1857
:100060005528220884002308F7002408F8002508F2
:10007000F9002608FA00270803178D000313280843
:1000800003178F000313290803178C0003132A0892
:1000900003178E00031320088A00210E8300FF0E31
:1000A0007F0E09008A150A1200288A110A128B2E67
:1000B000831609108910091183128910831689107B
:1000C0000816881608178817831209158316091150
:1000D000000083120914831609100000AA010816F3
:1000E00000308312081A01308316AA0488160030E3
:1000F0008312881A0130F7000310F70D7708831672
:10010000AA04081700308312081B0130F700F70D0E
:10011000F70DFC30F70577088316AA04881700301E
:100120008312881B0130F700F70DF70DF70DF8303B
:10013000F70577088316AA042A08F8007808A900AA
:100140008312091083160910000083120914831604
:1001500009100000AA01081600308312081A0130A5
:100160008316AA04881600308312881A0130F7001B
:100170000310F70D77088316AA04081700308312BE
:10018000081B0130F700F70DF70DFC30F705770875
:100190008316AA04881700308312881B0130F700E9
:1001A000F70DF70DF70DF830F70577088316AA0459
:1001B0002A08F8007808A80083120910831609108D
:1001C0000812881208138813290EF700F030F7057B
:1001D00077082804F8007808A800A81B6028A6085B
:1001E000031DF62883128910F828831683128914B8
:1001F000831689100000831209118316091100006B
:100200008312091083160910270EA8000F30A805C5
:100210002808A90029181029831208121229831608
:100220008312081683160812A9181A298312881235
:100230001C298316831288168316881229192429EB
:1002400083120813262983168312081783160813AE
:10025000A9192E298312881330298316831288172F
:100260008316881300008312091483160910382995
:10027000831209108316091027080F39A8002808CF
:10028000A9002918472983120812492983168312C5
:10029000081683160812A9185129831288125329A7
:1002A0008316831288168316881229195B298312F4
:1002B00008135D2983168312081783160813A919DA
:1002C000652983128813672983168312881783167A
:1002D0008813000083120914831609106F298312F2
:1002E00009108316091083120800A23084008313BA
:1002F0000008031989290130F800F701F70B7E295E
:10030000F80B7D294A30F700F70B84298729800BE9
:100310007B29080083162108073A831203199A29BA
:100320000B3A0319B129063A0319BD29023A0319F8
:10033000D529DC2901308316A200A300230BA129B3
:10034000A4294030A400A529A40101302202A40759
:1003500024088038A500A6012508A700831258208C
:10036000E3298316A6010130A7008312582002302A
:100370008316A20083127521E32901308316A2009F
:100380000230A300230BC529C8294030A400C92985
:10039000A40101302202A40724088038A500A60188
:1003A0002508A70083125820E3298316A6011030E0
:1003B000A70083125820E32901308316A6002108E4
:1003C000A70083125820080001308316A200831270
:1003D00075210030F8001F08C73978049F000130EC
:1003E0008316A200831275211F151F19F5291E08F7
:1003F000E601E5008E30F7006608F8006508F900B0
:10040000FA01F808031D0E2A7908F800F9010830EE
:10041000F702F808031D0E2AF701162A0310F81B2D
:10042000152AF90DF80DF7030E2AF8137A08B10012
:100430007908B0007808AF007708AE000130831665
:10044000A20083127521B501B4017F30B30086305C
:10045000B200B901B8017F30B7008630B600BD01E7
:10046000BC017F30BB008630BA0008006608ED0092
:100470006A08ED06ED1F412A03110310E61B031461
:10048000742A6608ED006908EE006508EE0203199B
:100490004F2AED1F742A0308013A8300742A6A0860
:1004A000EE006608EE0203195B2AED1F742A0308AA
:1004B000013A8300742A6B08EE006708EE02031904
:1004C000672AED1F742A0308013A8300742A6C0816
:1004D000EE006808EE020319732AED1F742A030860
:1004E000013A8300742A031008003108E80030083C
:1004F000E7002F08E6002E08E500EC01EB012030B4
:10050000EA008230E9003622031C8D2A4610460894
:100510008316870083120714932A46104608831611
:100520008700831207103508E8003408E700330815
:10053000E6003208E500EC01EB012030EA008230F1
:10054000E9003622031CAB2AC61046088316870032
:1005500083128714B12AC6104608831687008312B7
:1005600087103908E8003808E7003708E600360841
:10057000E500EC01EB012030EA008230E900362290
:10058000031CC92A461146088316870083120715E3
:10059000CF2A4611460883168700831207113D08AB
:1005A000E8003C08E7003B08E6003A08E500EC01FB
:1005B000EB012030EA008230E9003622031CE72AF2
:1005C000C61146088316870083128715ED2AC611C7
:1005D000460883168700831287110800803083182D
:1005E000EE068316A201A30183126A088316A100F6
:1005F00083126E088316A106831269080319042C5E
:100600008316A000F70083126D080319112C8316BE
:10061000A00203199E2B031C502B83126E08831615
:10062000A600A61783126F088316A5007008A40001
:10063000A3010310A60CA50CA40CA30CA00B182B53
:10064000A11F252B22142A2C2210201022166C30D8
:10065000840083133F2C2212A11B382B201C432B18
:10066000A60CA50CA40CA30CF70A0319252C432BEC
:10067000A61B462B0310A30DA40DA50DA60DF70375
:100680000319252C382B2217C42B221383126A0836
:100690008316A100A11F4E2BA6171E2CA6131E2CDD
:1006A00083126D088316A000F70083126908831671
:1006B000A00283126A088316A600A61783126B088D
:1006C0008316A50083126C088316A400A3010310EF
:1006D000A60CA50CA40CA30CA00B662BA11F732BBE
:1006E000A2142A2CA2102010A216703084008313AA
:1006F0003F2CA212A11B862B201C912BA60CA50C13
:10070000A40CA30CF70A0319252C912BA61B942BE0
:100710000310A30DA40DA50DA60DF7030319252C99
:10072000862BA217C42BA21383126E088316A10076
:10073000A11F9C2BA6171E2CA6131E2C83126E081D
:100740008316A600A61783126F088316A5007008EB
:10075000A400A11FAF2BA61322152A2C2211A3013E
:1007600020106C30840083133F2CA11BDA2B8312E2
:100770006A088316A100201CC42BA60CA50CA40C8F
:10078000A30CF70A0319252CA31FD52BA40A031DBC
:10079000D52BA50A031DD52BA60A031DD52BA60C08
:1007A000A50CA40CF70A0319252C221B452BA21B10
:1007B000932BFD2B8030A606A61FE42B2A2C831238
:1007C0006E088316A100F32B83126A088316A1001A
:1007D000A608031DF32BA508031DF32BA408031D76
:1007E000F32BF7011E2CA61BFD2B0310A30DA40D4C
:1007F000A50DA60DF70BF32B252CA11F012CA61779
:100800001E2CA6131E2C83126D08F7006E0883168B
:10081000A60083126F088316A5007008A4001E2C82
:1008200083126908F7006A088316A60083126B0812
:100830008316A50083126C088316A4002608F8000E
:100840002508F9002408FA005D2CF701F801F901E8
:10085000FA015D2CA301A409A509A609A309A30A0D
:10086000031D382CA40A031D382CA50A0319A60A57
:100870002218242BA218722B2219AE2BDF2B000872
:10088000A407031C492CA50A031D492CA60A031919
:10089000201484030008A507031C512CA60A031981
:1008A000201484030008801F803AA6070318201430
:1008B000221A2B2BA21A792BB52B831208000408BD
:1008C000EA006908EC000319F92C68088316A400F3
:1008D000831267088316A300831266088316A2009A
:1008E000831265088316A100A801A7012030A60085
:1008F0008230A50021080319EA2CA9002508031954
:10090000EA2CA90703188B2C7F30A902031CEA2CC0
:100910000319EA2C8F2C8130A9070318EA2C290827
:10092000F700F801F901FA012208AD00AD1723081C
:10093000AC002408AB001830A900AA012B1CB82C6D
:100940002808FA07031CAA2CF90A031DAA2CF80A86
:100950000319AA172708F907031CB12CF80A031971
:10096000AA172608A300A3172308F8070318AA1735
:10097000AA0DF80CF90CFA0CAD0CAC0CAB0C031076
:10098000A90B9D2C0130F7070318EA2CF81BCF2C7C
:10099000AD0DFA0DF90DF80DF7030319EA2CAD1F93
:1009A000E02CFA0A031DE02CF90A031DE02CF80ADA
:1009B000031DE02CF80CF90CFA0CF70A0319EA2CC9
:1009C0002208AA002608AA06AA1FE82CF817EE2C6F
:1009D000F813EE2CF701F801F901FA017A088312F5
:1009E000E8007908E7007808E6007708E500EC0BF6
:1009F000652C68088316A400831267088316A30079
:100A0000831266088316A200831265088316A1006C
:100A10002108B63CA100FA012208A500A217031084
:100A2000A20CA30CA40CFA0CF90CF80CF70CA10BFB
:100A30000F2DA51F262DF709F809F909FA09F70A5C
:100A40000319F80A0319F90A0319FA0A7A08831232
:100A5000E8007908E7007808E6007708E500E81F75
:100A60003E2DEA03EA16E509E609E709E809E50A81
:100A70000319E60A0319E70A0319E80A3B30F100F3
:100A80009A30F000CA30EF00EE010A30EC0069083D
:100A90000319EA0A831465308400831368088316F7
:100AA000A400831267088316A300831266088316C6
:100AB000A200831265088316A1007108A8007008BF
:100AC000A70083126F088316A60083126E08831690
:100AD000A50083186E2DA93084008313F701F80157
:100AE000F901FA01A901AA01AB01AC012808270408
:100AF000260425040319AC2D2030AD000310A10DF0
:100B0000A20DA30DA40DA90DAA0DAB0DAC0D2808C7
:100B10002C02031D952D27082B02031D952D260859
:100B20002A02031D952D25082902031CA62D250840
:100B3000A9022608031C260FAA022708031C270F58
:100B4000AB022808031C280FAC020314F70DF80DA4
:100B5000F90DFA0DAD0B7E2D29088000840A2A08B4
:100B60008000840A2B088000840A2C088000780802
:100B7000F708031DD22D8312690A6C02031DC22DD2
:100B80008316D22D6A080319D52D0F396C0203196B
:100B9000CB2D03180D2EEA1B0D2E6A1BD52D2030F0
:100BA000072E831620308312EA05EA1EE52DEA128D
:100BB0006908031DEA037708EA002D308316A100B7
:100BC00083128A216A08F700EA0169086C02031D92
:100BD000F52D7708EA002E308316A10083128A21B2
:100BE0006A08F7002030EA0500303030EA1E072E90
:100BF000EA126908031DEA037708EA002D3083161C
:100C0000A10083128A216A08F700EA013030F70751
:100C100077088316A10083128A2183107108831636
:100C2000A4007008A30083126F088316A200831229
:100C30006E088316A100A801A701A6010A30A5002D
:100C40008318252EA93084008313F701F801F901D8
:100C5000FA01A901AA01AB01AC0128082704260466
:100C600025040319632E2030AD000310A10DA20D41
:100C7000A30DA40DA90DAA0DAB0DAC0D28082C02D7
:100C8000031D4C2E27082B02031D4C2E26082A027A
:100C9000031D4C2E25082902031C5D2E2508A902E0
:100CA0002608031C260FAA022708031C270FAB02E5
:100CB0002808031C280FAC020314F70DF80DF90DDA
:100CC000FA0DAD0B352E29088000840A2A08800011
:100CD000840A2B088000840A2C0880007A08F1001E
:100CE0007908F00078088312EF007708EE00EC0B2B
:100CF0004A2D08002A152A1520234126D420201524
:100D00002A152A000A10A0214129C720A0122E1955
:100D10006610A51200008E0101308F0050308E0049
:100D2000E801E7012030E6008430E5004108EC00EE
:100D30004008EB003F08EA003E08E9003622031CA9
:100D4000592F5D3003178D0007308F0003130B08F8
:100D5000E5008B13831603178C170C14000000009A
:100D600083120313E51B8B1703170C087F39031934
:100D7000FD2E0313E50003170D080313E600031708
:100D80000F080313E70065088316A10083128A2168
:100D9000660803178D000313670803178F000313FA
:100DA0000B08E8008B13831603178C170C14000034
:100DB000000083120313E81B8B1703170C0D0E0D95
:100DC0007F390319FD2E0313E50003170D080313E4
:100DD000E60003170F080313E70065088316A10058
:100DE00083128A21660803178D000313670803170F
:100DF0008F008D0A03198F0AA62E66308D000730EA
:100E00008F0003130B08E5008B13831603178C1751
:100E10000C140000000083120313E51B8B1703174B
:100E20000C087F390319582F0313E50003170D0829
:100E30000313E60003170F080313E7006508831682
:100E4000A10083128A21660803178D000313670827
:100E500003178F0003130B08E8008B138316031787
:100E60008C170C140000000083120313E81B8B176F
:100E700003170C0D0E0D7F390319582F0313E500CE
:100E800003170D080313E60003170F080313E70009
:100E900065088316A10083128A21660803178D0056
:100EA0000313670803178F008D0A03198F0A012F98
:100EB00003130C108A110A1231282A152A15AA20A8
:100EC000CC22522A41152A152A1500010A2AC526C4
:100ED000D022D220D42AD2200000C230F432F23400
:100EE000611031000A2A3A1025173233202B0001F5
:100EF000C230F432F234611032000A2A6537F3301E
:100F00006F10321DA01266105600C230F432F23457
:100F1000611033000A2A6537F3306F1DA012661086
:100F20005600C230F432F234611034000A2A6537B8
:100F3000F3306F1DA012661056008A2A3A1025332E
:100F4000A0122500831686148312861CA92F013057
:100F5000AC008316861483128618B92FAC080319C7
:100F6000B92FAC01AD0A2D08053C0318B92F01308B
:080F7000AD008A150A121E2EC5
:101000008316061483120618532B0C308316A10086
:101010008A1183128A218A158A11E4218A153108DE
:10102000E8003008E7002F08E6002E08E500EC0194
:10103000EB012030EA008230E9008A1136228A155D
:10104000031835283508E8003408E7003308E600BF
:101050003208E500EC01EB012030EA008230E900C3
:101060008A1136228A15031C3A2883160810831227
:1010700008143E2883160810831208103508E8006B
:101080003408E7003308E6003208E500EC01EB0124
:101090002030EA008230E9008A1136228A150318CE
:1010A00064283908E8003808E7003708E600360801
:1010B000E500EC01EB012030EA008230E9008A1102
:1010C00036228A15031C6928831688108312881417
:1010D0006D2883168810831288103908E8003808B4
:1010E000E7003708E6003608E500EC01EB012030A8
:1010F000EA008230E9008A1136228A150318932803
:101100003D08E8003C08E7003B08E6003A08E50037
:10111000EC01EB012030EA008230E9008A1136222E
:101120008A15031C982883160811831208159C2819
:1011300083160811831208118A1175228A158310EB
:101140003108EC003008EB002F08EA002E08E90017
:101150003508F0003408EF003308EE003208ED00E7
:101160008A11EE228A157A08E8007908E7007808E3
:10117000E6007708E50083106808EC006708EB00DC
:101180006608EA006508E9003908F0003808EF0051
:101190003708EE003608ED008A11EE228A157A082B
:1011A000E8007908E7007808E6007708E500831092
:1011B0006808EC006708EB006608EA006508E900CB
:1011C0003D08F0003C08EF003B08EE003A08ED0057
:1011D0008A11EE228A157A08E4007908E30078087B
:1011E000E2007708E10064088316A4008312630814
:1011F0008316A300831262088316A200831261087B
:101200008316A100A801A7014830A6008530A500DB
:10121000210803197829A900250803197829A907A5
:10122000031819297F30A902031C7829031978298A
:101230001D298130A907031878292908F700F8012A
:10124000F901FA012208AD00AD172308AC0024080B
:10125000AB001830A900AA012B1C46292808FA0760
:10126000031C3829F90A031D3829F80A0319AA179B
:101270002708F907031C3F29F80A0319AA172608AB
:10128000A300A3172308F8070318AA17AA0DF80C40
:10129000F90CFA0CAD0CAC0CAB0C0310A90B2B2900
:1012A0000130F70703187829F81B5D29AD0DFA0DF9
:1012B000F90DF80DF70303197829AD1F6E29FA0A05
:1012C000031D6E29F90A031D6E29F80A031D6E29F4
:1012D000F80CF90CFA0CF70A031978292208AA006D
:1012E0002608AA06AA1F7629F8177C29F8137C2954
:1012F000F701F801F901FA017A088312E800790888
:10130000E7007808E6007708E5006808EC00670861
:10131000EB006608EA006508E900F001EF017F30A4
:10132000EE008830ED0069080319582AF5006D08B1
:101330000319582AF502031CA2297F30F507031868
:10134000582AA8298130F502031C582A0319582A63
:101350007508F700F801F901FA01F4016A08F300D1
:10136000F3176B08F2006C08F1001930F5007008F3
:10137000F1020318CB290130F2020318CB29F30242
:101380000318CB29F4020318CB29F40AF30AF20A52
:101390007008F107FD296F08F2020318E6290130F1
:1013A000F3020318E629F4020318E629F40AF30A03
:1013B0006F08F2077008F107031CFD29F20A031DEC
:1013C000FD29F30A031DFD29F40AFD296E08803862
:1013D000F3020318FC290130F4020318FC29F40A73
:1013E0006E088038F3076F08F207031CDA29F30A46
:1013F000031DDA29F40ADA297A14F50B002A0B2ADC
:101400000310F10DF20DF30DF40D0310FA0DF90DAB
:10141000F80DF60DB729761C132A0310F80CF90CF9
:10142000FA0CF60C162AF7030319582AF61B3F2A62
:101430000310F10DF20DF30DF40D7008F102031815
:101440002B2A0130F20203182B2AF30203182B2A4D
:10145000F402031C4E2A6F08F2020318362A0130E8
:10146000F3020318362AF402031C4E2A6E08803851
:10147000F30203183F2A0130F402031C4E2AFA0A31
:10148000031D4E2AF90A031D4E2AF80A031D4E2A8F
:10149000F70A0319582AF80CF90CFA0C6A08F50037
:1014A0006E08F506F51F562AF8175C2AF8135C2A11
:1014B000F701F801F901FA017A08E4007908E3007C
:1014C0007808E2007708E1007A3003178D000630D3
:1014D0008F0003130B08E5008B13831603178C177B
:1014E0000C140000000083120313E51B8B17031775
:1014F0000C087F390319C42A0313E50003170D08EC
:101500000313E60003170F080313E70065088316AB
:10151000A1008A1183128A218A15660803178D009B
:101520000313670803178F0003130B08E8008B13DE
:10153000831603178C170C1400000000831203138A
:10154000E81B8B1703170C0D0E0D7F390319C42AE6
:101550000313E50003170D080313E60003170F0834
:101560000313E70065088316A1008A1183128A21FC
:101570008A15660803178D000313670803178F0089
:101580008D0A03198F0A692A82308D0006308F0078
:10159000031009300313E5000B08E6008B138316D4
:1015A00003178C170C140000000083120313E61BB2
:1015B0008B170318072B03170C087F390313E6005A
:1015C00003170D080313E70003170F080313E800C0
:1015D00066088316A1008A1183128A218A1567087A
:1015E00003178D000313680803178F0003130B08FC
:1015F000E9008B13831603178C170C1400000000EE
:1016000083120313E91B8B17E50B072B2A2B0317F8
:101610000C0D0E0D7F390313E60003170D0803139D
:10162000E70003170F080313E80066088316A100FC
:101630008A1183128A218A15670803178D00031304
:10164000680803178F008D0A03198F0A031003130C
:10165000E50BCC2A893084006408E8006308E700C1
:101660006208E6006108E5000230E9008A115F24A3
:101670008A1520308316A1008A1183128A218A15C7
:1016800025308316A1008A1183128A218A15083019
:10169000E500FA308316A2008A11831275218A159B
:1016A000E50B492B00288B108A110A1231282830AB
:1016B000C8000C30C9000130CA000630CB00091048
:1016C0008316091083128910831689108312091159
:1016D000831609110812881208138813091089103B
:1016E00009118312AB018B1BAB178B130F308316C1
:1016F000A2008A11831275218A15AB1B8B1701304A
:10170000C7004708033C031CCA2B03308316A900FB
:1017100029188E2B83120812902B83168312081619
:1017200083160812A918982B831288129A2B8316F5
:1017300083128816831688122919A22B8312081384
:10174000A42B83168312081783160813A919AC2B30
:1017500083128813AE2B831683128817831688137F
:1017600000008312091483160910B62B8312091086
:10177000831609108312AB018B1BAB178B1305303B
:101780008316A2008A11831275218A15AB1B8B1751
:10179000C70A812B02308316A9002918D32B831284
:1017A0000812D52B83168312081683160812A9185F
:1017B000DD2B83128812DF2B831683128816831683
:1017C00088122919E72B83120813E92B8316831239
:1017D000081783160813A919F12B83128813F32B0A
:1017E0008316831288178316881300008312091446
:1017F00083160910FB2B831209108316091083121C
:10180000AB018B1BAB178B1305308316A2008A111B
:10181000831275218A15AB1B8B17C7014708033C40
:10182000031C2A2C48304707840083130008CC008F
:10183000AB018B1BAB178B138316A60183124C08CD
:101840008316A7008A11831258208A15AB1B8B17A9
:10185000C70A0E2CF0308B04831601132830831234
:10186000C8000C30C9000130CA000630CB00091096
:1018700083160910831289108316891083120911A7
:101880008316091108128812081388130910891089
:1018900009118312AB018B1BAB178B130F3083160F
:1018A000A2008A11831275218A15AB1B8B17013098
:1018B000C7004708033C031CA22C03308316A90071
:1018C0002918662C83120812682C831683120816B6
:1018D00083160812A918702C83128812722C831692
:1018E000831288168316881229197A2C83120813FA
:1018F0007C2C83168312081783160813A919842CCD
:1019000083128813862C83168312881783168813F4
:10191000000083120914831609108E2C83120910FB
:10192000831609108312AB018B1BAB178B13053089
:101930008316A2008A11831275218A15AB1B8B179F
:10194000C70A592C02308316A9002918AB2C831220
:101950000812AD2C83168312081683160812A918D4
:10196000B52C83128812B72C83168312881683161F
:1019700088122919BF2C83120813C12C83168312D5
:10198000081783160813A919C92C83128813CB2CA6
:101990008316831288178316881300008312091494
:1019A00083160910D32C8312091083160910831291
:1019B000AB018B1BAB178B1305308316A2008A116A
:1019C000831275218A15AB1B8B17C7014708033C8F
:1019D000031C022D48304707840083130008CC0005
:1019E000AB018B1BAB178B138316A60183124C081C
:1019F0008316A7008A11831258208A15AB1B8B17F8
:101A0000C70AE62C831681131F1383121F139F1717
:101A100083169F1383121F1483161F109F141F1504
:101A20009F150F30F70083128101813084008313EA
:101A30000008F0390738800064000008F739F7190A
:101A4000F03977048000831608108312081083167B
:101A500088108312881083160811831208118A15C2
:101A60000A121B2E831606158312061D4A2D4612D6
:101A70004608831687008312071283160810831204
:101A80000810831688108312881083160811831299
:101A90000811FD2DAB018B1BAB178B13E801E70180
:101AA0002030E6008530E5003108EC003008EB001E
:101AB0002F08EA002E08E9008A1136228A15AB1B8E
:101AC0008B1703187E2D03197E2DAB018B1BAB17D3
:101AD0008B13E801E7012030E6008530E50035088A
:101AE000EC003408EB003308EA003208E9008A1100
:101AF00036228A15AB1B8B17031C832D8316081007
:101B000083120814872D8316081083120810AB0166
:101B10008B1BAB178B13E801E7012030E600853003
:101B2000E5003508EC003408EB003308EA00320821
:101B3000E9008A1136228A15AB1B8B170318B92DC1
:101B4000AB018B1BAB178B13E801E7012030E600DC
:101B50008530E5003908EC003808EB003708EA006A
:101B60003608E9008A1136228A15AB1B8B17031C35
:101B7000BE2D8316881083128814C22D83168810F8
:101B800083128810AB018B1BAB178B133908E8004D
:101B90003808E7003708E6003608E500EC01EB01FD
:101BA0002030EA008530E9008A1136228A15AB1B05
:101BB0008B170318F42DAB018B1BAB178B133D0850
:101BC000E8003C08E7003B08E6003A08E500EC01C5
:101BD000EB012030EA008530E9008A1136228A15AF
:101BE000AB1B8B17031CF92D8316081183120815E4
:101BF000FD2D83160811831208118A150A12202E52
:101C000003081F398300AC01AD01BD01BC01BB015C
:101C1000BA01C501C4017030C3008330C200FF3077
:101C2000C60083161F149F141F159F1107309C00B8
:101C300083138312572B64008A11A22F8A15322D29
:101C40000A168A1100280A128A15AB018B1BAB17E2
:101C50008B138A11E4218A15AB1B8B17AB018B1BED
:101C6000AB178B138A1175228A15AB1B8B170230A9
:101C7000C700AB018B1BAB178B13C8308316A200B8
:101C80008A11831275218A15AB1B8B17C70B392E4E
:041C90001B2E6300A4
:1020000001302D02FB3E03180C2D053E0F2DAB01B8
:102010008B1BAB178B130C308316A1000A12831293
:102020008A210A16AB1B8B176D3003178D00073002
:102030008F0003130B08E5008B13831603178C170F
:102040000C140000000083120313E51B8B17031709
:102050000C087F39031974280313E50003170D08D2
:102060000313E60003170F080313E7006508831640
:10207000A1000A1283128A210A16660803178D002E
:102080000313670803178F0003130B08E8008B1373
:10209000831603178C170C1400000000831203131F
:1020A000E81B8B1703170C0D0E0D7F3903197428CD
:1020B0000313E50003170D080313E60003170F08C9
:1020C0000313E70065088316A1000A1283128A2110
:1020D0000A16660803178D000313670803178F009D
:1020E0008D0A03198F0A192872308D0007308F006E
:1020F000031004300313E5000B08E6008B1383166E
:1021000003178C170C140000000083120313E61B46
:102110008B170318B72803170C087F390313E60041
:1021200003170D080313E70003170F080313E80054
:1021300066088316A1000A1283128A210A1667080C
:1021400003178D000313680803178F0003130B0890
:10215000E9008B13831603178C170C140000000082
:1021600083120313E91B8B17E50BB728DA28031733
:102170000C0D0E0D7F390313E60003170D08031332
:10218000E70003170F080313E80066088316A10091
:102190000A1283128A210A16670803178D00031397
:1021A000680803178F008D0A03198F0A03100313A1
:1021B000E50B7C2889308400AB018B1BAB178B139C
:1021C0003108E8003008E7002F08E6002E08E50097
:1021D0000230E9000A125F240A16AB1B8B17AB0111
:1021E0008B1BAB178B1320308316A1000A128312AE
:1021F0008A210A16AB1B8B17AB018B1BAB178B13FA
:1022000056308316A1000A1283128A210A16AB1BCC
:102210008B170C2DAB018B1BAB178B130C3083165C
:10222000A1000A1283128A210A16AB1B8B17783081
:1022300003178D0007308F0003130B08E5008B1385
:10224000831603178C170C1400000000831203136D
:10225000E51B8B1703170C087F3903197729031324
:10226000E50003170D080313E60003170F08031317
:10227000E70065088316A1000A1283128A210A1654
:10228000660803178D000313670803178F000313F5
:102290000B08E8008B13831603178C170C1400002F
:1022A000000083120313E81B8B1703170C0D0E0D90
:1022B0007F39031977290313E50003170D0803136A
:1022C000E60003170F080313E70065088316A10053
:1022D0000A1283128A210A16660803178D00031357
:1022E000670803178F008D0A03198F0A1C297D3098
:1022F0008D0007308F0003100B300313E5000B082F
:10230000E6008B13831603178C170C1400000000D3
:1023100083120313E61B8B170318BA2903170C0843
:102320007F390313E60003170D080313E7000317B3
:102330000F080313E80066088316A1000A1283122F
:102340008A210A16670803178D000313680803170C
:102350008F0003130B08E9008B13831603178C17E8
:102360000C140000000083120313E91B8B17E50B0C
:10237000BA29DD2903170C0D0E0D7F390313E60072
:1023800003170D080313E70003170F080313E800F2
:1023900066088316A1000A1283128A210A166708AA
:1023A00003178D000313680803178F008D0A0319A4
:1023B0008F0A03100313E50B7F2989308400AB01DA
:1023C0008B1BAB178B133508E8003408E700330884
:1023D000E6003208E5000230E9000A125F240A161E
:1023E000AB1B8B17AB018B1BAB178B1320308316EA
:1023F000A1000A1283128A210A16AB1B8B17AB01AC
:102400008B1BAB178B1356308316A1000A12831255
:102410008A210A16AB1B8B170C2DAB018B1BAB173C
:102420008B130C308316A1000A1283128A210A161C
:10243000AB1B8B17853003178D0007308F000313FC
:102440000B08E5008B13831603178C170C14000080
:10245000000083120313E51B8B1703170C087F3949
:1024600003197A2A0313E50003170D080313E60086
:1024700003170F080313E70065088316A1000A126B
:1024800083128A210A16660803178D000313670852
:1024900003178F0003130B08E8008B138316031731
:1024A0008C170C140000000083120313E81B8B1719
:1024B00003170C0D0E0D7F3903197A2A0313E5005B
:1024C00003170D080313E60003170F080313E700B3
:1024D00065088316A1000A1283128A210A1666086B
:1024E00003178D000313670803178F008D0A031964
:1024F0008F0A1F2A8A308D0007308F0003100930A1
:102500000313E5000B08E6008B13831603178C17E3
:102510000C140000000083120313E61B8B17031832
:10252000BD2A03170C087F390313E60003170D08B3
:102530000313E70003170F080313E8006608831668
:10254000A1000A1283128A210A16670803178D0058
:102550000313680803178F0003130B08E9008B139C
:10256000831603178C170C1400000000831203134A
:10257000E91B8B17E50BBD2AE02A03170C0D0E0D86
:102580007F390313E60003170D080313E700031751
:102590000F080313E80066088316A1000A128312CD
:1025A0008A210A16670803178D00031368080317AA
:1025B0008F008D0A03198F0A03100313E50B822A7B
:1025C00089308400AB018B1BAB178B133908E800F3
:1025D0003808E7003708E6003608E5000230E90071
:1025E0000A125F240A16AB1B8B17AB018B1BAB17B0
:1025F0008B1320308316A1000A1283128A210A1637
:10260000AB1B8B17AB018B1BAB178B135630831691
:10261000A1000A1283128A210A16AB1B8B170C2DFC
:10262000AB018B1BAB178B130C308316A1000A1266
:1026300083128A210A16AB1B8B17913003178D006A
:1026400007308F0003130B08E5008B138316031765
:102650008C170C140000000083120313E51B8B176A
:1026600003170C087F3903197D2B0313E5000317AB
:102670000D080313E60003170F080313E7006508AE
:102680008316A1000A1283128A210A16660803170C
:102690008D000313670803178F0003130B08E8006E
:1026A0008B13831603178C170C1400000000831281
:1026B0000313E81B8B1703170C0D0E0D7F3903193D
:1026C0007D2B0313E50003170D080313E600031722
:1026D0000F080313E70065088316A1000A1283128E
:1026E0008A210A16660803178D000313670803176B
:1026F0008F008D0A03198F0A222B96308D00073028
:102700008F00031009300313E5000B08E6008B135C
:10271000831603178C170C14000000008312031398
:10272000E61B8B170318C02B03170C087F39031304
:10273000E60003170D080313E70003170F08031340
:10274000E80066088316A1000A1283128A210A167D
:10275000670803178D000313680803178F0003131E
:102760000B08E9008B13831603178C170C14000059
:10277000000083120313E91B8B17E50BC02BE32B1F
:1027800003170C0D0E0D7F390313E60003170D0818
:102790000313E70003170F080313E8006608831606
:1027A000A1000A1283128A210A16670803178D00F6
:1027B0000313680803178F008D0A03198F0A03108B
:1027C0000313E50B852B89308400AB018B1BAB1702
:1027D0008B133D08E8003C08E7003B08E6003A0898
:1027E000E5000230E9000A125F240A16AB1B8B17C2
:1027F000AB018B1BAB178B1320308316A1000A1281
:1028000083128A210A16AB1B8B17AB018B1BAB17EC
:102810008B1356308316A1000A1283128A210A16DE
:10282000AB1B8B170C2DAB018B1BAB178B130C3019
:102830008316A1000A1283128A210A16AB1B8B177A
:10284000AB018B1BAB178B1354308316A1000A12FC
:1028500083128A210A16AB1B8B17AB018B1BAB179C
:102860008B133A308316A1000A1283128A210A16AA
:10287000AB1B8B17AB018B1BAB178B132030831655
:10288000A1000A1283128A210A16AB1B8B1789300A
:102890008400AB018B1BAB178B134108E800400889
:1028A000E7003F08E6003E08E5000230E9000A12B2
:1028B0005F240A16AB1B8B17AB018B1BAB178B135B
:1028C00020308316A1000A1283128A210A16AB1B3C
:1028D0008B17AB018B1BAB178B1343308316A100F7
:1028E0000A1283128A210A16AB1B8B179D3003171D
:1028F0008D0007308F00031004300313E5000B0830
:10290000E6008B13831603178C170C1400000000CD
:1029100083120313E61B8B170318BA2C03170C083A
:102920007F390313E60003170D080313E7000317AD
:102930000F080313E80066088316A1000A12831229
:102940008A210A16670803178D0003136808031706
:102950008F0003130B08E9008B13831603178C17E2
:102960000C140000000083120313E91B8B17E50B06
:10297000BA2CDD2C03170C0D0E0D7F390313E60066
:1029800003170D080313E70003170F080313E800EC
:1029900066088316A1000A1283128A210A166708A4
:1029A00003178D000313680803178F008D0A03199E
:1029B0008F0A03100313E50B7F2C89308400AB01D1
:1029C0008B1BAB178B134508E8004408E70043084E
:1029D000E6004208E5000230E9000A125F240A1608
:1029E000AB1B8B17AB018B1BAB178B1320308316E4
:1029F000A1000A1283128A210A16AB1B8B17AB01A6
:102A00008B1BAB178B1325308316A1000A12831280
:102A10008A210A16AB1B8B178A150A12232E0A1459
:102A20008A100A15820707280A290D2A102B132C51
:02400E00393F38
:00000001FF
;PIC16F877A
;CRC=893D  CREATED="19-nov-18 17:38"
