:1000000004308A00022C0000C230F432F234611055
:1000100031000A2A6537F3306F1DA01269105600AF
:10002000C230F432F234611032000A2A6537F330FC
:100030006F10321DA01269105600C230F432F23433
:10004000611033000A2A6537F3306F1DA012691062
:100050005600C230F432F234611034000A2A653797
:10006000F3306F1DA012691056002E3084008313E8
:100070000008031949280130F800F701F70B3E2862
:10008000F80B3D284A30F700F70B44284728800B2F
:100090003B28080035184E2808124F2808168316EA
:1000A00008128312B5185628881257288816831606
:1000B0008812831235195E2808135F2808178316E3
:1000C00008138312B51966288813672888178316C2
:1000D0008813000083120914831609106F288312F5
:1000E00009108316091083120800B601831608163A
:1000F00000308312081A0130B604831688160030C7
:100100008312881A0130F7000310F70D7708B60440
:100110008316081700308312081B0130F700F70D13
:10012000F70DFC30F7057708B60483168817003002
:100130008312881B0130F700F70DF70DF70DF8302B
:10014000F7057708B6043608F8000800831609108A
:1001500089100911831289108316891008168816D0
:1001600008178817831209158316091100008312D6
:100170000914831609100000831275207808B50051
:100180000910831609100000831209148316091040
:100190000000831275207808B40009108316091036
:1001A00008128812081388138312350EF700F030F6
:1001B000F70577083404F8007808B400B41FE22883
:1001C0008316AE28B208031DE7288910E828891491
:1001D000831689100000831209118316091100008B
:1001E00083120910831609108312330EB4000F30E6
:1001F000B4053408B5004A2033080F39B400B500FF
:100200004A2008002830A8000C30A9000130AA00BC
:100210000630AB000910831609108312891083166B
:100220008910831209118316091108128812081304
:1002300088130910891009110F308312AE00352080
:100240000130A7002708033C031C2E290330B5000A
:100250004A200530AE003520A70A22290230B50019
:100260004A200530AE003520A7012708033C031CB7
:10027000452928302707840083130008AC00B20109
:100280002C08B300A620A70A352908000221C03097
:100290008B040B168316011383120221831681131C
:1002A0001F1383121F139F1783169F1383121F148C
:1002B00083161F109F141F159F1508108312081016
:1002C0008316881083128810831608118312081170
:1002D0008A110A12142C831686148312861C722922
:1002E0000130A00083168614831286188229A00884
:1002F00003198229A001A10A2108043C03188229BC
:100300000130A1008A110A12152C2F0B88298B2984
:100310004030B0008C29B00101302E02B007300807
:100320008038B100B2013108B300A62008002D08C2
:10033000073A0319A5290B3A0319AA29063A031902
:10034000B229023A0319B829BD290130AE00AF0025
:100350008521C229B2010130B300A6200230AE00CF
:100360003520C2290130AE000230AF008521C229FC
:10037000B2011030B300A620C2290130B2002D080E
:10038000B300A62008000B08A7008B1383160317E1
:100390008C170C140000000083120313A71B8B178B
:1003A00003170C087F390319172A0313A700031733
:1003B0000D080313A80003170F080313A90027084B
:1003C000AD009721280803178D0003132908031790
:1003D0008F0003130B08AA008B13831603178C17C7
:1003E0000C140000000083120313AA1B8B170317C1
:1003F0000C0D0E0D7F390319172A0313A7000317DD
:100400000D080313A80003170F080313A9002708FA
:10041000AD009721280803178D000313290803173F
:100420008F008D0A03198F0A0313C32903170313BF
:1004300008000B08A8008B13831603178C170C14E5
:100440000000000083120313A81B8B170318502A07
:1004500003170C087F390313A80003170D080313B3
:10046000A90003170F080313AA002808AD0097215D
:10047000290803178D0003132A0803178F0003139D
:100480000B08AB008B13831603178C170C1400009A
:10049000000083120313AB1B8B17A70B502A6F2A84
:1004A00003170C0D0E0D7F390313A80003170D0859
:1004B0000313A90003170F080313AA002808AD00AF
:1004C0009721290803178D0003132A0803178F00AB
:1004D0008D0A03198F0A03100313A70B192A0800AA
:1004E0002E08F8012D020318782A2D08F700842A17
:1004F000F7010830AF00AD0DF70D2E087702031895
:10050000F700F80DAF0B7B2A08002030281E303092
:10051000A9002708F700A71F952AF709F70A770807
:10052000A7002D30A900A81728142708AD006430B3
:10053000AE0070227708A70030307807AA0027089D
:10054000AD000A30AE00702230307707AC0030309A
:100550007807AB002908F70030302A020319B42AC3
:10056000A814A81B2815C82A2908AA002030A90009
:1005700030302B020319C02A2814A81BA814C82A3B
:10058000031D2814031DC82A2A08AB002030AA0026
:100590002819CF2AA818D22A2818D52AD82A2908F3
:1005A000AD0097212A08AD0097212B08AD009721B7
:1005B0002C08AD009721080001302102FC3E0318F1
:1005C000622B043E652B0C30AD00972104300317DD
:1005D0008D0000308F000313C321093003178D00F5
:1005E00000308F00031009300313A70019222208DE
:1005F000A7001830A80085222030AD009721563082
:10060000AD009721622B0C30AD00972110300317FD
:100610008D0000308F000313C321153003178D00A8
:1006200000308F0003100B300313A700192223089A
:10063000A7001830A80085222030AD009721563041
:10064000AD009721622B0C30AD0097211D300317B0
:100650008D0000308F000313C321223003178D005B
:1006600000308F00031009300313A700192224085B
:10067000A7001830A80085222030AD009721563001
:10068000AD009721622B0C30AD0097212930031764
:100690008D0000308F000313C3212E3003178D000F
:1006A00000308F00031009300313A700192225081A
:1006B000A7001830A80085222030AD0097215630C1
:1006C000AD0097218A110A12162C0A148A140A11F5
:1006D0008207E32A032B232B432B0130AE00352066
:1006E0000030F8001F08C73978049F000130AE00C1
:1006F00035201F151F197A2B1E08A2003230A300C7
:10070000A400A5008A110A12172C2208183C03180D
:100710008D2B2308183C031C922B83160810831280
:100720000814962B83160810831208102308183C0F
:1007300003189E2B2408183C031CA32B8316881037
:1007400083128814A72B831688108312881024081C
:10075000183C0318AF2B2508183C031CB42B831638
:10076000081183120815B82B83160811831208117B
:100770008A110A12182C2208183C031CC62B2610BA
:1007800026088316870083120714CC2B2610260810
:1007900083168700831207102308183C031CD72BED
:1007A000A61026088316870083128714DD2BA61057
:1007B000260883168700831287102408183C031C20
:1007C000E82B261126088316870083120715EE2BC7
:1007D0002611260883168700831207112508183C66
:1007E000031CF92BA6112608831687008312871590
:1007F000FF2BA611260883168700831287118A1102
:100800000A12192C03081F398300A001A101A501B8
:10081000FF30A60083161F149F141F159F11073069
:100820009C008313831246296B29DC2A6D2B852BB0
:10083000BB2B0230A700C830AE003520A70B1B2C05
:04084000142C630011
:02400E00393F38
:00000001FF
;PIC16F877A
;CRC=F1F9  CREATED="11-nov-18 23:46"
