:1000000007308A00BE2F0000FF00030E8301A1000D
:100010000A08A0008A010408A2007708A300780853
:10002000A4007908A5007A08A60003170D08031399
:10003000A70003170F080313A80003170C080313E6
:10004000A90003170E080313AA00831383120B1EC3
:100050002B288B184C28220884002308F70024083A
:10006000F8002508F9002608FA00270803178D0074
:100070000313280803178F000313290803178C00A4
:1000800003132A0803178E00031320088A00210E89
:100090008300FF0E7F0E09008A110A12632B550898
:1000A0000319BF28DD0059080319BF28DD0703180D
:1000B00060287F30DD02031CBF280319BF28642895
:1000C0008130DD070318BF285D08F700F801F9014A
:1000D000FA015608E100E1175708E0005808DF0070
:1000E0001830DD00DE015F1C8D285C08FA07031C58
:1000F0007F28F90A031D7F28F80A0319DE175B0819
:10010000F907031C8628F80A0319DE175A08D700D6
:10011000D7175708F8070318DE17DE0DF80CF90C8F
:10012000FA0CE10CE00CDF0C0310DD0B722801303F
:10013000F7070318BF28F81BA428E10DFA0DF90DE5
:10014000F80DF7030319BF28E11FB528FA0A031DAC
:10015000B528F90A031DB528F80A031DB528F80CBF
:10016000F90CFA0CF70A0319BF285608DE005A08E2
:10017000DE06DE1FBD28F817C328F813C328F701D1
:10018000F801F901FA010800831609108910091114
:100190008312891083168910081688160817881785
:1001A000831209158316091100008312091483169E
:1001B000091000008312DE01831608160030831236
:1001C000081A0130DE048316881600308312881A5C
:1001D0000130F7000310F70D7708DE0483160817C7
:1001E00000308312081B0130F700F70DF70DFC30CB
:1001F000F7057708DE048316881700308312881B02
:100200000130F700F70DF70DF70DF830F705770817
:10021000DE045E08F8007808DD0009108316091076
:100220000000831209148316091000008312DE01F6
:100230008316081600308312081A0130DE04831674
:10024000881600308312881A0130F7000310F70D6A
:100250007708DE048316081700308312081B01306C
:10026000F700F70DF70DFC30F7057708DE0483166D
:10027000881700308312881B0130F700F70DF70D47
:10028000F70DF830F7057708DE045E08F800780807
:10029000DC0009108316091008128812081388134D
:1002A00083125D0EF700F030F70577085C04F80064
:1002B0007808DC00DC1F5E298316CC28DA08031DD1
:1002C0006329891064298914831689100000831218
:1002D00009118316091100008312091083160910F1
:1002E00083125B0EDC000F30DC055C08DD005D185E
:1002F0007B2908127C290816831608128312DD1840
:1003000083298812842988168316881283125D191E
:100310008B2908138C290817831608138312DD19FB
:100320009329881394298817831688130000831251
:100330000914831609109C298312091083160910C9
:1003400083125B080F39DC005C08DD005D18AA2908
:100350000812AB290816831608128312DD18B22979
:100360008812B32988168316881283125D19BA2958
:100370000813BB290817831608138312DD19C22935
:100380008813C32988178316881300008312091461
:1003900083160910CB2983120910831609108312C2
:1003A000080056308400831300080319E529013042
:1003B000F800F701F70BDA29F80BD9294A30F700D2
:1003C000F70BE029E329800BD72908005508073AE5
:1003D0000319F4290B3A0319092A063A0319112AB9
:1003E000023A0319272A2C2A0130D600D700570BCE
:1003F000FA29FD294030D800FE29D80101305602E3
:10040000D80758088038D900DA015908DB00C42021
:10041000312ADA010130DB00C4200230D600D121BC
:10042000312A0130D6000230D700570B182A1B2A78
:100430004030D8001C2AD80101305602D80758088D
:100440008038D900DA015908DB00C420312ADA01EA
:100450001030DB00C420312A0130DA005508DB00FF
:10046000C42008008318372A5D3084008313F70105
:10047000F801F901FA01DD01DE01DF01E0015C08AC
:100480005B045A0459040319752A2030E100031053
:10049000D50DD60DD70DD80DDD0DDE0DDF0DE00D20
:1004A0005C086002031D5E2A5B085F02031D5E2A72
:1004B0005A085E02031D5E2A59085D02031C6F2A5A
:1004C0005908DD025A08031C5A0FDE025B08031CA0
:1004D0005B0FDF025C08031C5C0FE0020314F70DE6
:1004E000F80DF90DFA0DE10B472A5D088000840A2A
:1004F0005E088000840A5F088000840A600880002B
:1005000008000408CD004C08CF000319A02A4B08AE
:10051000D8004A08D7004908D6004808D500DC01B1
:10052000DB012030DA008230D9004F207A08CB007E
:100530007908CA007808C9007708C800CF0B872A55
:100540004B08D8004A08D7004908D6004808D5000B
:100550005508B63CD500FA015608D900D617031045
:10056000D60CD70CD80CFA0CF90CF80CF70CD50BF0
:10057000AF2AD91FC62AF709F809F909FA09F70AB3
:100580000319F80A0319F90A0319FA0A7A08CB00C1
:100590007908CA007808C9007708C800CB1FDD2A8F
:1005A000CD03CD16C809C909CA09CB09C80A031960
:1005B000C90A0319CA0A0319CB0A3B30D4009A307E
:1005C000D300CA30D200D1010A30CF004C08031941
:1005D000CD0A83144830840083134B08D8004A089E
:1005E000D7004908D6004808D5005408DC00530855
:1005F000DB005208DA005108D90032227808F708E7
:10060000031D152B4C0A4F020319152B4D08031916
:10061000172B0F394F0203190F2B0318472BCD1B34
:10062000472B4D1B172B2030432B2030CD05CD1EE3
:10063000252BCD124C08031DCD037708CD002D309E
:10064000D500E6214D08F700CD014C084F02031DEF
:10065000332B7708CD002E30D500E6214D08F7006A
:100660002030CD0500303030CD1E432BCD124C084C
:10067000031DCD037708CD002D30D500E6214D08B0
:10068000F700CD013030F7077708D500E621831059
:100690005408D8005308D7005208D6005108D50096
:1006A000DC01DB01DA010A30D90032227A08D400F9
:1006B0007908D3007808D2007708D100CF0BE92A57
:1006C0008A110A124B2D8316061483120618A22DC6
:1006D0002F082E0730073107C901C8008E30F700F8
:1006E0004908F8004808F900FA01F808031D822BB0
:1006F0007908F800F9010830F702F808031D822B89
:10070000F7018A2B0310F81B892BF90DF80DF7035D
:10071000822BF8137A08C7007908C6007808C5004C
:100720007708C4004708D8004608D7004508D60017
:100730004408D500DC01DB014830DA008530D900FF
:100740004F207A08CB007908CA007808C9007708DA
:10075000C8004B08CF004A08CE004908CD00480821
:10076000CC00D301D2014C30D1008830D0004C08ED
:1007700003197C2CD800500803197C2CD802031CC8
:10078000C62B7F30D80703187C2CCC2B8130D802A5
:10079000031C7C2C03197C2C5808F700F801F90184
:1007A000FA01D7014D08D600D6174E08D5004F08DC
:1007B000D4001930D8005308D4020318EF2B0130AD
:1007C000D5020318EF2BD6020318EF2BD70203181C
:1007D000EF2BD70AD60AD50A5308D407212C520882
:1007E000D50203180A2C0130D60203180A2CD702AE
:1007F00003180A2CD70AD60A5208D5075308D4077B
:10080000031C212CD50A031D212CD60A031D212CE3
:10081000D70A212C51088038D6020318202C013029
:10082000D7020318202CD70A51088038D60752085F
:10083000D507031CFE2BD60A031DFE2BD70AFE2B61
:100840007A14D80B242C2F2C0310D40DD50DD60DD3
:10085000D70D0310FA0DF90DF80DD90DDB2B591C2E
:10086000372C0310F80CF90CFA0CD90C3A2CF703BE
:1008700003197C2CD91B632C0310D40DD50DD60D78
:10088000D70D5308D40203184F2C0130D50203189A
:100890004F2CD60203184F2CD702031C722C52087F
:1008A000D50203185A2C0130D60203185A2CD7024D
:1008B000031C722C51088038D6020318632C0130B7
:1008C000D702031C722CFA0A031D722CF90A031DAD
:1008D000722CF80A031D722CF70A03197C2CF80CF1
:1008E000F90CFA0C4D08D8005108D806D81F7A2CFC
:1008F000F817802CF813802CF701F801F901FA01A0
:100900007A08C7007908C6007808C5007708C400CF
:10091000A63003178D0005308F0003130B08C800A5
:100920008B13831603178C170C140000000083121E
:100930000313C81B8B1703170C087F390319E02C0E
:100940000313C80003170D080313C90003170F088A
:100950000313CA004808D500E621490803178D0093
:1009600003134A0803178F0003130B08CB008B13E4
:10097000831603178C170C14000000008312031356
:10098000CB1B8B1703170C0D0E0D7F390319E02CB1
:100990000313C80003170D080313C90003170F083A
:1009A0000313CA004808D500E621490803178D0043
:1009B00003134A0803178F008D0A03198F0A8D2C21
:1009C000AE308D0005308F00031009300313C800CE
:1009D0000B08C9008B13831603178C170C14000027
:1009E000000083120313C91B8B1703181F2D031755
:1009F0000C087F390313C90003170D080313CA003D
:100A000003170F080313CB004908D500E6214A0855
:100A100003178D0003134B0803178F0003130B08F4
:100A2000CC008B13831603178C170C1400000000E6
:100A300083120313CC1B8B17C80B1F2D3E2D0317DE
:100A40000C0D0E0D7F390313C90003170D08031396
:100A5000CA0003170F080313CB004908D500E6218D
:100A60004A0803178D0003134B0803178F008D0AE4
:100A700003198F0A03100313C80BE82C8930840074
:100A80004708CB004608CA004508C9004408C8000A
:100A90000230CC00812A2030D500E6212530D50057
:100AA000E6213212320883168700831207120330C0
:100AB000C800C830D600D121C80B592D0C30D50044
:100AC000E62132123208831687008312071603309C
:100AD000C800C830D600D121C80B692D2E08183C9B
:100AE0000318762D2F08183C031C7B2D8316081045
:100AF000831208147F2D83160810831208102F0804
:100B0000183C0318872D3008183C031C8C2D8316C5
:100B1000881083128814902D8316881083128810F1
:100B20003008183C0318982D3108183C031C9D2DE3
:100B30008316081183120815A12D8316081183123C
:100B40000811632B8B108A110A122B282A152A15DB
:100B500020234126D42020152A152A000A10A0217E
:100B60004129C720A0122E196610A5120000C2301C
:100B7000F432F234611031000A2A6537F3306F1D08
:100B8000A01269105600C230F432F2346110320003
:100B90000A2A6537F3306F10321DA0126910560013
:100BA000C230F432F234611033000A2A6537F33070
:100BB0006F1DA01269105600C230F432F234611079
:100BC00034000A2A6537F3306F1DA01269105600F1
:100BD0002830B4000C30B5000130B6000630B70044
:100BE0000910831609108312891083168910831245
:100BF00009118316091108128812081388130910A5
:100C0000891009118312AB018B1BAB178B130F30AB
:100C1000D600D121AB1B8B170130B3003308033C46
:100C2000031C492E0330DD005D18182E0812192E02
:100C30000816831608128312DD18202E8812212E22
:100C400088168316881283125D19282E0813292E00
:100C50000817831608138312DD19302E8813312EDE
:100C6000881783168813000083120914831609104D
:100C7000392E83120910831609108312AB018B1BC6
:100C8000AB178B130530D600D121AB1B8B17B30AE2
:100C90000E2E0230DD005D184F2E0812502E081661
:100CA000831608128312DD18572E8812582E8816C4
:100CB0008316881283125D195F2E0813602E0817A1
:100CC000831608138312DD19672E8813682E881780
:100CD0008316881300008312091483160910702EDE
:100CE00083120910831609108312AB018B1BAB17FB
:100CF0008B130530D600D121AB1B8B17B301330802
:100D0000033C031C952E3430330784008313000802
:100D1000B800AB018B1BAB178B13DA013808DB0073
:100D2000C420AB1B8B17B30A7F2ED0308B048316E5
:100D3000011328308312B4000C30B5000130B60026
:100D40000630B70009108316091083128910831624
:100D500089108312091183160911081288120813C9
:100D600088130910891009118312AB018B1BAB1773
:100D70008B130F30D600D121AB1B8B170130B30082
:100D80003308033C031CFB2E0330DD005D18CA2E24
:100D90000812CB2E0816831608128312DD18D22EE5
:100DA0008812D32E88168316881283125D19DA2EC4
:100DB0000813DB2E0817831608138312DD19E22EA1
:100DC0008813E32E881783168813000083120914F2
:100DD00083160910EB2E8312091083160910831253
:100DE000AB018B1BAB178B130530D600D121AB1B8E
:100DF0008B17B30AC02E0230DD005D18012F0812D8
:100E0000022F0816831608128312DD18092F881284
:100E10000A2F88168316881283125D19112F081362
:100E2000122F0817831608138312DD19192F881340
:100E30001A2F88178316881300008312091483164B
:100E40000910222F83120910831609108312AB0197
:100E50008B1BAB178B130530D600D121AB1B8B1727
:100E6000B3013308033C031C472F3430330784009D
:100E700083130008B800AB018B1BAB178B13DA018F
:100E80003808DB00C420AB1B8B17B30A312F831645
:100E900081131F1383121F139F1783169F1383122F
:100EA0001F1483161F109F141F159F150F30F70076
:100EB000831281018130840083130008F0390738E0
:100EC000800064000008F739F719F03977048000D2
:100ED0008316081083120810831688108312881056
:100EE00083160811831208118A110A12D02F831653
:100EF00086148312861C7E2F0130AC008316861464
:100F0000831286188E2FAC0803198E2FAC01AD0A00
:100F10002D08043C03188E2F0130AD008A110A12EF
:100F2000D22FAB018B1BAB178B130130D600D12115
:100F3000AB1B8B170030F8001F08C73978049F00DF
:100F4000AB018B1BAB178B130130D600D121AB1B30
:100F50008B171F151F19AA2F1E08AE00AB018B1B84
:100F6000AB178B130130D600D121AB1B8B1732305E
:100F7000AF00B000B1008A110A12D92F03081F393F
:100F80008300AC01AD01B101FF30B20083161F1424
:100F90009F141F159F1107309C0083138312E82DA7
:100FA0006400772F8A1500288A110A1600280A1271
:100FB000912F8A15C62A8A110230B300AB018B1B10
:100FC000AB178B13C830D600D121AB1B8B17B30BDB
:060FD000DE2FD02F6300AC
:10100000831606158312061D18283212320883161D
:1010100087008312071283160810831208108316A4
:101020008810831288108316081183120811C32AAE
:10103000C9012E08C8008E30F7004908F80048089A
:10104000F900FA01F808031D2F287908F800F901C2
:101050000830F702F808031D2F28F701372803107E
:10106000F81B3628F90DF80DF7032F28F813B601F1
:10107000B5017830B4008230B3007A08BA0079083C
:10108000B9007808B8007708B7003408BB00380802
:10109000BB06BB1F502803110310B41B0314832885
:1010A0003408BB003708BC003308BC0203195E28B3
:1010B000BB1F83280308013A830083283808BC003B
:1010C0003408BC0203196A28BB1F83280308013AAD
:1010D000830083283908BC003508BC020319762830
:1010E000BB1F83280308013A830083283A08BC0009
:1010F0003608BC0203198228BB1F83280308013A63
:101100008300832803100318F4280319F428C90165
:101110002F08C8008E30F7004908F8004808F90089
:10112000FA01F808031D9E287908F800F901083033
:10113000F702F808031D9E28F701A6280310F81BE4
:10114000A528F90DF80DF7039E28F813B601B5018F
:101150007830B4008230B3007A08BA007908B90058
:101160007808B8007708B7003408BB003808BB0619
:10117000BB1FBF2803110310B41B0314F22834084B
:10118000BB003708BC003308BC020319CD28BB1FC5
:10119000F2280308013A8300F2283808BC0034081A
:1011A000BC020319D928BB1FF2280308013A8300A7
:1011B000F2283908BC003508BC020319E528BB1F1A
:1011C000F2280308013A8300F2283A08BC003608E6
:1011D000BC020319F128BB1FF2280308013A83005F
:1011E000F2280310031CF928831608108312081430
:1011F000FD288316081083120810C9012F08C800A3
:101200008E30F7004908F8004808F900FA01F8089C
:10121000031D14297908F800F9010830F702F808CD
:10122000031D1429F7011C290310F81B1B29F90DB4
:10123000F80DF7031429F813B601B5017830B4009E
:101240008230B3007A08BA007908B9007808B8008B
:101250007708B7003408BB003808BB06BB1F352928
:1012600003110310B41B031468293408BB003708AA
:10127000BC003308BC0203194329BB1F68290308BB
:10128000013A830068293808BC003408BC020319FD
:101290004F29BB1F68290308013A830068293908D0
:1012A000BC003508BC0203195B29BB1F6829030871
:1012B000013A830068293A08BC003608BC020319C9
:1012C0006729BB1F68290308013A830068290310B6
:1012D0000318D729C9013008C8008E30F700490823
:1012E000F8004808F900FA01F808031D8129790877
:1012F000F800F9010830F702F808031D8129F70109
:1013000089290310F81B8829F90DF80DF7038129A5
:10131000F813B601B5017830B4008230B3007A0812
:10132000BA007908B9007808B8007708B70034081F
:10133000BB003808BB06BB1FA22903110310B41B56
:101340000314D5293408BB003708BC003308BC029D
:101350000319B029BB1FD5290308013A8300D529F9
:101360003808BC003408BC020319BC29BB1FD529AE
:101370000308013A8300D5293908BC003508BC02AE
:101380000319C829BB1FD5290308013A8300D529B1
:101390003A08BC003608BC020319D429BB1FD52962
:1013A0000308013A8300D5290310031CDC298316A6
:1013B000881083128814E0298316881083128810FD
:1013C000C9013008C8008E30F7004908F800480805
:1013D000F900FA01F808031DF7297908F800F90166
:1013E0000830F702F808031DF729F701FF29031059
:1013F000F81BFE29F90DF80DF703F729F8137A0801
:10140000B6007908B5007808B4007708B300BA01CF
:10141000B9017830B8008230B7003408BB00380812
:10142000BB06BB1F182A03110310B41B03144B2A5D
:101430003408BB003708BC003308BC020319262A55
:10144000BB1F4B2A0308013A83004B2A3808BC0013
:101450003408BC020319322ABB1F4B2A0308013A85
:1014600083004B2A3908BC003508BC0203193E2A08
:10147000BB1F4B2A0308013A83004B2A3A08BC00E1
:101480003608BC0203194A2ABB1F4B2A0308013A3B
:1014900083004B2A03100318BA2AC9013108C80077
:1014A0008E30F7004908F8004808F900FA01F808FA
:1014B000031D642A7908F800F9010830F702F808DA
:1014C000031D642AF7016C2A0310F81B6B2AF90D1F
:1014D000F80DF703642AF8137A08B6007908B50006
:1014E0007808B4007708B300BA01B9017830B800C1
:1014F0008230B7003408BB003808BB06BB1F852A02
:1015000003110310B41B0314B82A3408BB003708B6
:10151000BC003308BC020319932ABB1FB82A030876
:10152000013A8300B82A3808BC003408BC02031909
:101530009F2ABB1FB82A0308013A8300B82A39083A
:10154000BC003508BC020319AB2ABB1FB82A03082C
:10155000013A8300B82A3A08BC003608BC020319D5
:10156000B72ABB1FB82A0308013A8300B82A031020
:10157000031CBF2A8316081183120815C32A831679
:101580000811831208118A110A12D42F2E08183C50
:10159000031CD12A321032088316870083120714E5
:1015A000D72A3210320883168700831207102F08BB
:1015B000183C031CE22AB2103208831687008312FB
:1015C0008714E82AB2103208831687008312871026
:1015D0003008183C031CF32A3211320883168700A6
:1015E00083120715F92A32113208831687008312F5
:1015F00007113108183C031C042BB2113208831662
:101600008700831287150A2BB211320883168700D0
:0A161000831287118A110A12DB2FE2
:1020000001302D02FC3E03180A2E043E0D2EAB01BA
:102010008B1BAB178B130C30D5000A12E6210A1666
:10202000AB1B8B17B73003178D0005308F000313E0
:102030000B08C8008B13831603178C170C140000B1
:10204000000083120313C81B8B1703170C087F397A
:1020500003196E280313C80003170D080313C900E2
:1020600003170F080313CA004808D5000A12E62117
:102070000A16490803178D0003134A0803178F0037
:1020800003130B08CB008B13831603178C170C1448
:102090000000000083120313CB1B8B1703170C0DDA
:1020A0000E0D7F3903196E280313C80003170D089E
:1020B0000313C90003170F080313CA004808D5000B
:1020C0000A12E6210A16490803178D0003134A086D
:1020D00003178F008D0A03198F0A1728BC308D0053
:1020E00005308F00031009300313C8000B08C90026
:1020F0008B13831603178C170C1400000000831237
:102100000313C91B8B170318AF2803170C087F395B
:102110000313C90003170D080313CA0003170F08A0
:102120000313CB004908D5000A12E6210A164A0813
:1021300003178D0003134B0803178F0003130B08BD
:10214000CC008B13831603178C170C1400000000AF
:1021500083120313CC1B8B17C80BAF28D02803178F
:102160000C0D0E0D7F390313C90003170D0803135F
:10217000CA0003170F080313CB004908D5000A1241
:10218000E6210A164A0803178D0003134B080317AC
:102190008F008D0A03198F0A03100313C80B7628CA
:1021A0002E08B3001830B4002030341E3030B50093
:1021B0003308F700F71FE428F709F70A7708B30098
:1021C0002D30B500B417341478083308B9006430E2
:1021D000BA003A08F80139020318F1283908F70063
:1021E000FD28F7010830BB00B90DF70D3A0877025A
:1021F0000318F700F80DBB0BF4287708B300303054
:102200007807B6003308B9000A30BA003A08F80176
:10221000390203180E293908F7001A29F701083086
:10222000BB00B90DF70D3A0877020318F700F80D57
:10223000BB0B112930307707B80030307807B70072
:102240003508F7003030360203192A29B414B41BBC
:1022500034153E293508B6002030B500303037023D
:10226000031936293414B41BB4143E29031D341445
:10227000031D3E293608B7002030B6003419452921
:10228000B418502934185B296629AB018B1BAB1796
:102290008B133508D5000A12E6210A16AB1B8B17E3
:1022A000AB018B1BAB178B133608D5000A12E62146
:1022B0000A16AB1B8B17AB018B1BAB178B133708A5
:1022C000D5000A12E6210A16AB1B8B17AB018B1B3C
:1022D000AB178B133808D5000A12E6210A16AB1B80
:1022E0008B17AB018B1BAB178B132030D5000A1259
:1022F000E6210A16AB1B8B17AB018B1BAB178B139D
:102300005630D5000A12E6210A16AB1B8B170A2E8F
:10231000AB018B1BAB178B130C30D5000A12E621D7
:102320000A16AB1B8B17C33003178D0005308F00C7
:1023300003130B08C8008B13831603178C170C1498
:102340000000000083120313C81B8B1703170C082F
:102350007F390319EF290313C80003170D0803136E
:10236000C90003170F080313CA004808D5000A1252
:10237000E6210A16490803178D0003134A080317BC
:102380008F0003130B08CB008B13831603178C17D6
:102390000C140000000083120313CB1B8B170317D0
:1023A0000C0D0E0D7F390319EF290313C800031715
:1023B0000D080313C90003170F080313CA004808C8
:1023C000D5000A12E6210A16490803178D000313E7
:1023D0004A0803178F008D0A03198F0A9829C830FD
:1023E0008D0005308F0003100B300313C8000B085D
:1023F000C9008B13831603178C170C140000000000
:1024000083120313C91B8B170318302A03170C08F8
:102410007F390313C90003170D080313CA000317FC
:102420000F080313CB004908D5000A12E6210A164B
:102430004A0803178D0003134B0803178F0003137B
:102440000B08CC008B13831603178C170C14000099
:10245000000083120313CC1B8B17C80B302A512AA0
:1024600003170C0D0E0D7F390313C90003170D0858
:102470000313CA0003170F080313CB004908D50044
:102480000A12E6210A164A0803178D0003134B08A7
:1024900003178F008D0A03198F0A03100313C80B4B
:1024A000F7292F08B3001830B4002030341E303024
:1024B000B5003308F700F71F652AF709F70A770810
:1024C000B3002D30B500B417341478083308B900C0
:1024D0006430BA003A08F80139020318722A390840
:1024E000F7007E2AF7010830BB00B90DF70D3A0856
:1024F00077020318F700F80DBB0B752A7708B300B5
:1025000030307807B6003308B9000A30BA003A080C
:10251000F801390203188F2A3908F7009B2AF701BE
:102520000830BB00B90DF70D3A0877020318F70021
:10253000F80DBB0B922A30307707B800303078079F
:10254000B7003508F700303036020319AB2AB4144F
:10255000B41B3415BF2A3508B6002030B500303022
:1025600037020319B72A3414B41BB414BF2A031D4D
:102570003414031DBF2A3608B7002030B6003419C2
:10258000C62AB418D12A3418DC2AE72AAB018B1BDF
:10259000AB178B133508D5000A12E6210A16AB1BC0
:1025A0008B17AB018B1BAB178B133608D5000A12A8
:1025B000E6210A16AB1B8B17AB018B1BAB178B13DA
:1025C0003708D5000A12E6210A16AB1B8B17AB01A0
:1025D0008B1BAB178B133808D5000A12E6210A169D
:1025E000AB1B8B17AB018B1BAB178B132030D500AC
:1025F0000A12E6210A16AB1B8B17AB018B1BAB171C
:102600008B135630D5000A12E6210A16AB1B8B1726
:102610000A2EAB018B1BAB178B130C30D5000A12A3
:10262000E6210A16AB1B8B17D03003178D0005303F
:102630008F0003130B08C8008B13831603178C1726
:102640000C140000000083120313C81B8B17031720
:102650000C087F390319702B0313C80003170D08EA
:102660000313C90003170F080313CA004808D50055
:102670000A12E6210A16490803178D0003134A08B7
:1026800003178F0003130B08CB008B13831603175C
:102690008C170C140000000083120313CB1B8B1744
:1026A00003170C0D0E0D7F390319702B0313C8008F
:1026B00003170D080313C90003170F080313CA00FB
:1026C0004808D5000A12E6210A16490803178D00AA
:1026D00003134A0803178F008D0A03198F0A192B59
:1026E000D5308D0005308F00031009300313C8006A
:1026F0000B08C9008B13831603178C170C140000EA
:10270000000083120313C91B8B170318B12B031787
:102710000C087F390313C90003170D080313CA00FF
:1027200003170F080313CB004908D5000A12E6214E
:102730000A164A0803178D0003134B0803178F006E
:1027400003130B08CC008B13831603178C170C1480
:102750000000000083120313CC1B8B17C80BB12B96
:10276000D22B03170C0D0E0D7F390313C90003176D
:102770000D080313CA0003170F080313CB00490801
:10278000D5000A12E6210A164A0803178D00031322
:102790004B0803178F008D0A03198F0A03100313C8
:1027A000C80B782B3008B3001830B4002030341E2A
:1027B0003030B5003308F700F71FE62BF709F70AAA
:1027C0007708B3002D30B500B417341478083308F7
:1027D000B9006430BA003A08F80139020318F32B43
:1027E0003908F700FF2BF7010830BB00B90DF70DD2
:1027F0003A0877020318F700F80DBB0BF62B7708A1
:10280000B30030307807B6003308B9000A30BA0098
:102810003A08F80139020318102C3908F7001C2C6B
:10282000F7010830BB00B90DF70D3A08770203181D
:10283000F700F80DBB0B132C30307707B8003030A1
:102840007807B7003508F7003030360203192C2C12
:10285000B414B41B3415402C3508B6002030B50034
:10286000303037020319382C3414B41BB414402C04
:10287000031D3414031D402C3608B7002030B60069
:102880003419472CB418522C34185D2C682CAB0129
:102890008B1BAB178B133508D5000A12E6210A16DD
:1028A000AB1B8B17AB018B1BAB178B133608D500FB
:1028B0000A12E6210A16AB1B8B17AB018B1BAB1759
:1028C0008B133708D5000A12E6210A16AB1B8B17AB
:1028D000AB018B1BAB178B133808D5000A12E6210E
:1028E0000A16AB1B8B17AB018B1BAB178B1320305E
:1028F000D5000A12E6210A16AB1B8B17AB018B1B06
:10290000AB178B135630D5000A12E6210A16AB1B03
:102910008B170A2EAB018B1BAB178B130C30D5001A
:102920000A12E6210A16AB1B8B17DC3003178D0049
:1029300005308F0003130B08C8008B138316031791
:102940008C170C140000000083120313C81B8B1794
:1029500003170C087F390319F12C0313C800031760
:102960000D080313C90003170F080313CA00480812
:10297000D5000A12E6210A16490803178D00031331
:102980004A0803178F0003130B08CB008B13831621
:1029900003178C170C140000000083120313CB1BC9
:1029A0008B1703170C0D0E0D7F390319F12C031330
:1029B000C80003170D080313C90003170F080313FA
:1029C000CA004808D5000A12E6210A16490803176A
:1029D0008D0003134A0803178F008D0A03198F0A0D
:1029E0009A2CE1308D0005308F000310093003135D
:1029F000C8000B08C9008B13831603178C170C141F
:102A00000000000083120313C91B8B170318322D1B
:102A100003170C087F390313C90003170D080313AC
:102A2000CA0003170F080313CB004908D5000A1288
:102A3000E6210A164A0803178D0003134B080317F3
:102A40008F0003130B08CC008B13831603178C170E
:102A50000C140000000083120313CC1B8B17C80B4F
:102A6000322D532D03170C0D0E0D7F390313C900A2
:102A700003170D080313CA0003170F080313CB0035
:102A80004908D5000A12E6210A164A0803178D00E4
:102A900003134B0803178F008D0A03198F0A0310C5
:102AA0000313C80BF92C3108B3001830B4002030E0
:102AB000341E3030B5003308F700F71F672DF709D3
:102AC000F70A7708B3002D30B500B417341478082E
:102AD0003308B9006430BA003A08F8013902031823
:102AE000742D3908F700802DF7010830BB00B90DAF
:102AF000F70D3A0877020318F700F80DBB0B772D96
:102B00007708B30030307807B6003308B9000A30D0
:102B1000BA003A08F80139020318912D3908F70074
:102B20009D2DF7010830BB00B90DF70D3A0877026B
:102B30000318F700F80DBB0B942D30307707B80061
:102B400030307807B7003508F70030303602031907
:102B5000AD2DB414B41B3415C12D3508B60020308A
:102B6000B500303037020319B92D3414B41BB41436
:102B7000C12D031D3414031DC12D3608B7002030AC
:102B8000B6003419C82DB418D32D3418DE2DE92D14
:102B9000AB018B1BAB178B133508D5000A12E6214E
:102BA0000A16AB1B8B17AB018B1BAB178B133608AD
:102BB000D5000A12E6210A16AB1B8B17AB018B1B43
:102BC000AB178B133708D5000A12E6210A16AB1B88
:102BD0008B17AB018B1BAB178B133808D5000A1270
:102BE000E6210A16AB1B8B17AB018B1BAB178B13A4
:102BF0002030D5000A12E6210A16AB1B8B17AB0159
:102C00008B1BAB178B135630D5000A12E6210A1620
:102C1000AB1B8B178A110A12D72F0A108A140A15B8
:0A2C2000820707288829092B8A2C57
:02400E003D3F34
:00000001FF
;PIC16F877A
;CRC=02BF  CREATED="19-nov-18 01:20"
