:1000000002308A00272A0000CD32EE3A3100CD328C
:10001000EE3A3200CD32EE3A3300CD32EE3A3400D1
:100020002730840083130008031924280130F800C6
:10003000F701F70B1928F80B18284A30F700F70BCF
:100040001F282228800B162808002D18292808129E
:100050002A280816831608128312AD183128881230
:10006000322888168316881283122D19392808130E
:100070003A280817831608138312AD1941288813EC
:1000800042288817831688130000831209148316E8
:1000900009104A28831209108316091083120800D8
:1000A000AE018316081600308312081A0130AE0420
:1000B0008316881600308312881A0130F700031067
:1000C000F70D7708AE048316081700308312081B5B
:1000D0000130F700F70DF70DFC30F7057708AE0497
:1000E0008316881700308312881B0130F700F70D44
:1000F000F70DF70DF830F7057708AE042E08F80075
:1001000008008316091089100911831289108316BB
:100110008910081688160817881783120915831680
:1001200009110000831209148316091000008312BC
:1001300050207808AD0009108316091000008312C2
:100140000914831609100000831250207808AC00AF
:1001500009108316091008128812081388138312D5
:100160002D0EF700F030F70577082C04F80078081A
:10017000AC00AC1FBD2883168928AA08031DC2281D
:100180008910C3288914831689100000831209116D
:1001900083160911000083120910831609108312B7
:1001A0002B0EAC000F30AC052C08AD0025202B0821
:1001B0000F39AC00AD00252008002830A3000C301A
:1001C000A4000130A5000630A6000910831609100E
:1001D000831289108316891083120911831609115D
:1001E00008128812081388130910891009110F309A
:1001F0008312A70010200130A2002208033C031C38
:1002000009290330AD0025200530A7001020A20ADF
:10021000FD280230AD0025200530A7001020A201E6
:100220002208033C031C2029233022078400831367
:100230000008A700AA012708AB008120A20A102904
:100240000800DD20C0308B040B16831601138312C7
:10025000DD20831681131F1383121F139F1783162C
:100260009F1383121F1483161F109F141F159F15B1
:1002700083128A110A12362A831686148312861C68
:1002800043290130A000831686148312861853294F
:10029000A00803195329A001A10A2108043C03184E
:1002A00053290130A1008A110A12372A270B592934
:1002B0005C294030A8005D29A80101302602A8076A
:1002C00028088038A900AA012908AB00812008006D
:1002D0002508073A031976290B3A03197B29063AB0
:1002E00003198329023A031989298E290130A600AE
:1002F000A70056219329AA010130AB0081200230CA
:10030000A700102093290130A6000230A700562133
:100310009329AA011030AB00812093290130AA0053
:100320002508AB00812008000B08A2008B13831660
:1003300003178C170C140000000083120313A21B78
:100340008B1703170C087F390319E8290313A20040
:1003500003170D080313A30003170F080313A400CA
:100360002208A5006821230803178D000313240821
:1003700003178F0003130B08A5008B1383160317B5
:100380008C170C140000000083120313A51B8B179D
:1003900003170C0D0E0D7F390319E8290313A20072
:1003A00003170D080313A30003170F080313A4007A
:1003B0002208A5006821230803178D0003132408D1
:1003C00003178F008D0A03198F0A0313942903174B
:1003D0000313080001302102FC3E03181C2A043ECE
:1003E0001F2A0C30A5006821043003178D0000304F
:1003F0008F00031394211C2A0C30A50068210730BC
:1004000003178D0000308F00031394211C2A0C3039
:10041000A50068210A3003178D0000308F000313F8
:1004200094211C2A0C30A50068210D3003178D0083
:1004300000308F00031394218A110A12382A0A10FF
:100440008A140A118207F129FC29072A122A0308B3
:100450001F398300A001A10183161F149F141F15CB
:100460009F1107309C008313831221293C29EA291C
:0A047000C830A7001020362A6300F0
:02400E00393F38
:00000001FF
;PIC16F877A
;CRC=6C55  CREATED="11-nov-18 19:26"
