:1000000004308A005A2C0000C230F432F2346110FD
:1000100031000A2A6537F3306F1DA01269105600AF
:10002000C230F432F234611032000A2A6537F330FC
:100030006F10321DA01269105600C230F432F23433
:10004000611033000A2A6537F3306F1DA012691062
:100050005600C230F432F234611034000A2A653797
:10006000F3306F1DA012691056002F3084008313E7
:100070000008031949280130F800F701F70B3E2862
:10008000F80B3D284A30F700F70B44284728800B2F
:100090003B28080036184E2808124F2808168316E9
:1000A00008128312B6185628881257288816831605
:1000B0008812831236195E2808135F2808178316E2
:1000C00008138312B61966288813672888178316C1
:1000D0008813000083120914831609106F288312F5
:1000E00009108316091083120800B7018316081639
:1000F00000308312081A0130B704831688160030C6
:100100008312881A0130F7000310F70D7708B7043F
:100110008316081700308312081B0130F700F70D13
:10012000F70DFC30F7057708B70483168817003001
:100130008312881B0130F700F70DF70DF70DF8302B
:10014000F7057708B7043708F80008008316091088
:1001500089100911831289108316891008168816D0
:1001600008178817831209158316091100008312D6
:100170000914831609100000831275207808B60050
:100180000910831609100000831209148316091040
:100190000000831275207808B50009108316091035
:1001A00008128812081388138312360EF700F030F5
:1001B000F70577083504F8007808B500B51FE22880
:1001C0008316AE28B308031DE7288910E828891490
:1001D000831689100000831209118316091100008B
:1001E00083120910831609108312340EB5000F30E4
:1001F000B5053508B6004A2034080F39B500B600F9
:100200004A2008002830A9000C30AA000130AB00B9
:100210000630AC000910831609108312891083166A
:100220008910831209118316091108128812081304
:1002300088130910891009110F308312AF0035207F
:100240000130A8002808033C031C2E290330B60007
:100250004A200530AF003520A80A22290230B60016
:100260004A200530AF003520A8012808033C031CB4
:10027000452929302807840083130008AD00B30105
:100280002D08B400A620A80A352908000221C03094
:100290008B040B168316011383120221831681131C
:1002A0001F1383121F139F1783169F1383121F148C
:1002B00083161F109F141F159F1508108312081016
:1002C0008316881083128810831608118312081170
:1002D0008A110A126C2C831686148312861C7229CA
:1002E0000130A00083168614831286188229A00884
:1002F00003198229A001A10A2108043C03188229BC
:100300000130A1008A110A126D2C83160615831282
:10031000061DA429261226088316870083120712B9
:100320008316081083120810831688108312881011
:1003300083160811831208110830A800FA30AF00A4
:100340003520A80B9E29D7292208183C031CAC296C
:100350002308193C0318B1298316081083120814C6
:10036000B52983160810831208102308193C031CB2
:10037000BD292408193C0318C2298316881083124A
:100380008814C62983168810831288102408183C04
:100390000318CE292508183C031CD32983160811FD
:1003A00083120815D72983160811831208118A11A0
:1003B0000A126E2C300BDD29E0294030B100E12912
:1003C000B10101302F02B10731088038B200B3010A
:1003D0003208B400A62008002E08073A0319FA29AB
:1003E0000B3A0319FF29063A0319072A023A03199F
:1003F0000D2A122A0130AF00B000DA21172AB3010A
:100400000130B400A6200230AF003520172A013099
:10041000AF000230B000DA21172AB3011030B40067
:10042000A620172A0130B3002E08B400A620080029
:100430000B08A8008B13831603178C170C140000ED
:10044000000083120313A81B8B1703170C087F39B6
:1004500003196C2A0313A80003170D080313A9003E
:1004600003170F080313AA002808AE00EC2129087F
:1004700003178D0003132A0803178F0003130B08BB
:10048000AB008B13831603178C170C1400000000AD
:1004900083120313AB1B8B1703170C0D0E0D7F3943
:1004A00003196C2A0313A80003170D080313A900EE
:1004B00003170F080313AA002808AE00EC2129082F
:1004C00003178D0003132A0803178F008D0A0319E1
:1004D0008F0A0313182A0317031308000B08A90037
:1004E0008B13831603178C170C1400000000831263
:1004F0000313A91B8B170318A52A03170C087F39B0
:100500000313A90003170D080313AA0003170F080C
:100510000313AB002908AE00EC212A0803178D0055
:1005200003132B0803178F0003130B08AC008B1366
:10053000831603178C170C1400000000831203139A
:10054000AC1B8B17A80BA52AC42A03170C0D0E0D84
:100550007F390313A90003170D080313AA0003171B
:100560000F080313AB002908AE00EC212A0803177B
:100570008D0003132B0803178F008D0A03198F0AB0
:1005800003100313A80B6E2A08002F08F8012E028F
:100590000318CD2A2E08F700D92AF7010830B00039
:1005A000AE0DF70D2F0877020318F700F80DB00B0A
:1005B000D02A08002030291E3030AA002808F70071
:1005C000A81FEA2AF709F70A7708A8002D30AA0021
:1005D000A91729142808AE006430AF00C522770897
:1005E000A80030307807AB002808AE000A30AF0012
:1005F000C52230307707AD0030307807AC002A08CC
:10060000F70030302B020319092BA914A91B291557
:100610001D2B2A08AB002030AA0030302C02031911
:10062000152B2914A91BA9141D2B031D2914031D07
:100630001D2B2B08AC002030AB002919242BA91846
:10064000272B29182A2B2D2B2A08AE00EC212B084A
:10065000AE00EC212C08AE00EC212D08AE00EC2100
:10066000080001302102FC3E0318B72B043EBA2BD0
:100670000C30AE00EC21043003178D0000308F00E9
:1006800003131822093003178D0000308F00031068
:1006900009300313A8006E222208A8001830A90010
:1006A000DA222030AE00EC215630AE00EC21B72B20
:1006B0000C30AE00EC21103003178D0000308F009D
:1006C00003131822153003178D0000308F0003101C
:1006D0000B300313A8006E222308A8001830A900CD
:1006E000DA222030AE00EC215630AE00EC21B72BE0
:1006F0000C30AE00EC211D3003178D0000308F0050
:1007000003131822223003178D0000308F000310CE
:1007100009300313A8006E222408A8001830A9008D
:10072000DA222030AE00EC215630AE00EC21B72B9F
:100730000C30AE00EC21293003178D0000308F0003
:10074000031318222E3003178D0000308F00031082
:1007500009300313A8006E222508A8001830A9004C
:10076000DA222030AE00EC215630AE00EC218A11A6
:100770000A126F2C0A148A140A118207382B582B7C
:10078000782B982B0130AF0035200030F8001F087F
:10079000C73978049F000130AF0035201F151F199D
:1007A000CF2B1E08A2000130AF0035203230A3004D
:1007B000A400A5008A110A12702C2208183C031804
:1007C000E52B2308183C031CEA2B83160810831220
:1007D0000814EE2B83160810831208102308183C07
:1007E0000318F62B2408183C031CFB2B83168810D7
:1007F00083128814FF2B8316881083128810240814
:10080000183C0318072C2508183C031C0C2C8316D5
:10081000081183120815102C831608118312081171
:100820008A110A12762C2208183C031C1E2C261052
:1008300026088316870083120714242C2610260806
:1008400083168700831207102308183C031C2F2CE3
:10085000A61026088316870083128714352CA6104D
:10086000260883168700831287102408183C031C6F
:10087000402C261126088316870083120715462C64
:100880002611260883168700831207112508183CB5
:10089000031C512CA6112608831687008312871586
:1008A000572CA611260883168700831287118A11F8
:1008B0000A12772C03081F398300A001A101A501AA
:1008C000FF30A60083161F149F141F159F110730B9
:1008D0009C008313831246296B298529312BC22B57
:1008E0000230A7002708033C0319DD2B132C02302C
:1008F000A800C830AF003520A80B792C6C2C630001
:02400E00393F38
:00000001FF
;PIC16F877A
;CRC=5A7E  CREATED="15-nov-18 17:56"
